S0140000536572766F547269676765722E737265632D
S113000010C02AC029C028C027C059C225C024C096
S113001023C022C021C020C01FC01EC01DC01CC0E0
S11300201BC011241FBECFE5D2E0DEBFCDBF10E060
S1130030A0E6B0E0E6EDF6E002C005900D92A2382D
S1130040B107D9F710E0A2E8B0E001C01D92A03AD0
S1130050B107E1F798D23DC3D3CF0F931F93DF933A
S1130060CF9300D0CDB7DEB760918B0070918C0038
S113007080918D0090918E009B01AC01012E1CE0BB
S113008055954795379527951A95D1F7102D30E05A
S1130090A0E6B0E0F901EE0FFF1FEA0FFB1F00819D
S11300A011812F5F3F4F220F331FA20FB31F2D91DA
S11300B03C91201B310B3A83298329813A81359560
S11300C027953595279535952795359527953A8321
S11300D0298329813A8160707F7080709070672FC6
S11300E0782F892F992787FD9A95442737FD4095C6
S11300F0542F99D27A83698389819A81080F191FB1
S1130100802F912F0F900F90CF91DF911F910F911E
S11301100895BC01809197008823A1F0E3E9F0E001
S1130120CB01AA2797FDA095BA2F20813181428166
S11301305381820F931FA41FB51F80839183A283D1
S1130140B38313C0E3E9F0E09B01442737FD4095F6
S1130150542F80819181A281B381821B930BA40BC4
S1130160B50B80839183A283B38380919300909194
S11301709400A0919500B0919600803020E0920701
S113018021E0A20720E0B20774F08FEF9FEFA0E018
S1130190B0E08093930090939400A0939500B09363
S11301A0960081E00895BB2314F080E00895109236
S11301B0930010929400109295001092960081E0A2
S11301C00895AF92BF92CF92DF92EF92FF920F9376
S11301D01F9303E810E0F801A190B190C190D19071
S11301E060817181828193816A197B098C099D09DF
S11301F028EE33E040E050E016D29B01AC01732FAF
S1130200842F952F2FEF3FEF40E050E025D2CA0115
S1130210B901F801208931894289538904D22FEF29
S11302203FEF40E050E018D2E22EF32E042F152FBA
S1130230C601B50128EE33E040E050E0F4D12FEFE1
S11302403FEF40E050E008D2E20EF31E041F151FFA
S11302508E2D9F2D1F910F91FF90EF90DF90CF90E7
S1130260BF90AF90089580918F00882319F4109265
S113027082000895809182008F5F80938200823093
S113028011F481E00895833010F480E0089583E050
S11302908093820080E00895CF93DF93DEDEEC014B
S11302A0E2DF90919200913079F0913028F0923011
S11302B0D1F0933001F12DC0882361F1E2E9F0E03F
S11302C081E08083858326C0882329F0E2E9F0E079
S11302D083E080831582CE011CDF8823D9F082E07D
S11302E08093920017C08823A9F0E2E9F0E083E04C
S11302F0808315820FC0882329F0E2E9F0E081E0D1
S113030080838583CE0105DF882321F0109292003B
S113031001C0FFCF56DFAA2797FDA095BA2F80937F
S1130320980090939900A0939A00B0939B00DF915A
S1130330CF910895CF93DF9390DEEC0194DF809109
S11303409200813069F0813028F0823099F0833056
S1130350B9F02CC0E2E9F0E081E08083858327C016
S1130360CE01D7DE882319F1E2E9F0E083E080834F
S113037015821DC0E2E9F0E083E08083158217C096
S1130380CE01C7DE882399F0E2E9F0E081E08083C2
S113039085833A9680819181A281B3810196A11DC2
S11303A0B11D80839183A283B38301C0FFCF09DF92
S11303B0AA2797FDA095BA2F80939800909399004F
S11303C0A0939A00B0939B00DF91CF910895DF939F
S11303D0CF930F92CDB7DEB7982F882349F083309F
S11303E039F0873029F020E030E040E050E029C0C7
S11303F086E886B9E3E2F0E080818061808389E861
S113040081B997B98FEF89838981882331F08981F4
S11304108150898389818823D1F7E6E2F0E08081E5
S113042080658083808186FDFDCF84B195B1A0E095
S1130430B0E02FEF3FEF40E050E0281B390B4A0BB0
S11304405B0B622F732F842F952F0F90CF91DF9129
S11304500895EF92FF920F931F9380E0B8DF0F2E61
S1130460F3E8EF2EF0E0FF2EF02DF7016193719386
S1130470819391938F0183E0AADFF80160837183F4
S11304808283938387E0A3DFF70160877187828784
S113049093878685882339F089B386958095817002
S11304A080938F0007C089B390E0969587958170FB
S11304B080938F001F910F91FF90EF9008951F92EA
S11304C00F920FB60F9211240F931F932F933F9304
S11304D04F935F936F937F938F939F93AF93BF9348
S11304E0EF93FF9380919000882311F023DF01C0E4
S11304F0D3DE08E910E0F8018081918188519C4F96
S11305009BBD8ABDA6DFF80184819581A681B78150
S11305108D529140A040B0401CF0F8941FBC1BBA0F
S1130520FF91EF91BF91AF919F918F917F916F91C7
S11305305F914F913F912F911F910F910F900FBE9B
S11305400F901F901895A3E4B0E080E88C93EAE341
S1130550F0E080818064808382E88FBD8AE18EBD73
S113056012BCECE2F0E010828FE19EE495BD84BD04
S11305701DBC1CBC88EE93E09BBD8ABD80E28083D9
S113058081E08C930895E6E4F0E080E8808381E0E4
S11305908083D9DF86B390E0969587959695879565
S11305A08170E0E9F0E0819389B390E096958795B6
S11305B09695879581708083882359F0EAE3F0E06B
S11305C080818D7F8083EBE3F0E080818260808393
S11305D005C0EAE3F0E080818D7F8083EFE8F0E0FE
S11305E010821382148215821682178281E080871A
S11305F0158616861786108A2CDFE0E2F0E08081EB
S1130600866080837894E5E5F0E080818062808371
S11306108081877E808380818062808388958081C9
S11306208F7D8083F2CFFF27EE27BB27AA2760FFA9
S113063004C0A20FB31FE41FF51F220F331F441F72
S1130640551F969587957795679589F7009776074F
S113065071F7CF01BD01089597FB092E05260ED031
S113066057FD04D014D00AD0001C38F4509540959E
S1130670309521953F4F4F4F5F4F0895F6F7909572
S11306808095709561957F4F8F4F9F4F0895A1E29C
S11306901A2EAA1BBB1BFD010DC0AA1FBB1FEE1FF8
S11306A0FF1FA217B307E407F50720F0A21BB30B43
S11306B0E40BF50B661F771F881F991F1A9469F7BF
S11306C060957095809590959B01AC01BD01CF011B
S10906D00895F894FFCF29
S11306D6B5014702ED0219041F05D40689083D0A2F
S11306E6CD0C11117B149A192222AB2A3333004004
S10506F6666632
S9030000FC
